{
  "contractName": "TicketFactory",
  "abi": [
    {
      "inputs": [],
      "stateMutability": "nonpayable",
      "type": "constructor"
    },
    {
      "anonymous": false,
      "inputs": [
        {
          "indexed": true,
          "internalType": "uint256",
          "name": "id",
          "type": "uint256"
        },
        {
          "indexed": false,
          "internalType": "string",
          "name": "eventName",
          "type": "string"
        }
      ],
      "name": "EventCreated",
      "type": "event"
    },
    {
      "inputs": [
        {
          "internalType": "uint256",
          "name": "",
          "type": "uint256"
        }
      ],
      "name": "eventsList",
      "outputs": [
        {
          "internalType": "address",
          "name": "eventAddress",
          "type": "address"
        },
        {
          "internalType": "string",
          "name": "eventName",
          "type": "string"
        },
        {
          "internalType": "string",
          "name": "eventDescription",
          "type": "string"
        },
        {
          "internalType": "string",
          "name": "eventPosterURI",
          "type": "string"
        },
        {
          "internalType": "string",
          "name": "ticketSymbol",
          "type": "string"
        },
        {
          "internalType": "uint256",
          "name": "ticketPrice",
          "type": "uint256"
        },
        {
          "internalType": "uint256",
          "name": "startAt",
          "type": "uint256"
        },
        {
          "internalType": "uint256",
          "name": "eventDuration",
          "type": "uint256"
        },
        {
          "internalType": "uint256",
          "name": "maxTickets",
          "type": "uint256"
        },
        {
          "internalType": "bool",
          "name": "isExists",
          "type": "bool"
        }
      ],
      "stateMutability": "view",
      "type": "function"
    },
    {
      "inputs": [],
      "name": "owner",
      "outputs": [
        {
          "internalType": "address payable",
          "name": "",
          "type": "address"
        }
      ],
      "stateMutability": "view",
      "type": "function"
    },
    {
      "inputs": [
        {
          "internalType": "uint256",
          "name": "",
          "type": "uint256"
        }
      ],
      "name": "ticketOffices",
      "outputs": [
        {
          "internalType": "contract TicketOffice",
          "name": "",
          "type": "address"
        }
      ],
      "stateMutability": "view",
      "type": "function"
    },
    {
      "inputs": [
        {
          "internalType": "string",
          "name": "_eventName",
          "type": "string"
        },
        {
          "internalType": "string",
          "name": "_eventDescription",
          "type": "string"
        },
        {
          "internalType": "string",
          "name": "_eventPosterURI",
          "type": "string"
        },
        {
          "internalType": "string",
          "name": "_ticketSymbol",
          "type": "string"
        },
        {
          "internalType": "uint256",
          "name": "_ticketPrice",
          "type": "uint256"
        },
        {
          "internalType": "uint256",
          "name": "_startAt",
          "type": "uint256"
        },
        {
          "internalType": "uint256",
          "name": "_eventDuration",
          "type": "uint256"
        },
        {
          "internalType": "uint256",
          "name": "_maxTickets",
          "type": "uint256"
        }
      ],
      "name": "addEvent",
      "outputs": [],
      "stateMutability": "nonpayable",
      "type": "function"
    },
    {
      "inputs": [
        {
          "internalType": "address payable",
          "name": "_newOwner",
          "type": "address"
        }
      ],
      "name": "changeOwner",
      "outputs": [],
      "stateMutability": "nonpayable",
      "type": "function"
    },
    {
      "inputs": [],
      "name": "countEvents",
      "outputs": [
        {
          "internalType": "uint256",
          "name": "",
          "type": "uint256"
        }
      ],
      "stateMutability": "view",
      "type": "function"
    }
  ],
  "bytecode": "0x608060405234801561001057600080fd5b50600280546001600160a01b0319163317905561322d806100326000396000f3fe60806040523480156200001157600080fd5b50600436106200006a5760003560e01c80634837a7d8146200006f578063560081aa146200008b5780638da5cb5b14620002e1578063a6f9dae11462000307578063af0b66461462000330578063f087c8eb1462000350575b600080fd5b6200007962000566565b60408051918252519081900360200190f35b620002df6004803603610100811015620000a457600080fd5b810190602081018135600160201b811115620000bf57600080fd5b820183602082011115620000d257600080fd5b803590602001918460018302840111600160201b83111715620000f457600080fd5b91908080601f0160208091040260200160405190810160405280939291908181526020018383808284376000920191909152509295949360208101935035915050600160201b8111156200014757600080fd5b8201836020820111156200015a57600080fd5b803590602001918460018302840111600160201b831117156200017c57600080fd5b91908080601f0160208091040260200160405190810160405280939291908181526020018383808284376000920191909152509295949360208101935035915050600160201b811115620001cf57600080fd5b820183602082011115620001e257600080fd5b803590602001918460018302840111600160201b831117156200020457600080fd5b91908080601f0160208091040260200160405190810160405280939291908181526020018383808284376000920191909152509295949360208101935035915050600160201b8111156200025757600080fd5b8201836020820111156200026a57600080fd5b803590602001918460018302840111600160201b831117156200028c57600080fd5b91908080601f01602080910402602001604051908101604052809392919081815260200183838082843760009201919091525092955050823593505050602081013590604081013590606001356200056d565b005b620002eb620009ca565b604080516001600160a01b039092168252519081900360200190f35b620002df600480360360208110156200031f57600080fd5b50356001600160a01b0316620009d9565b620002eb600480360360208110156200034857600080fd5b503562000a48565b62000370600480360360208110156200036857600080fd5b503562000a63565b604051808b6001600160a01b03166001600160a01b03168152602001806020018060200180602001806020018a81526020018981526020018881526020018781526020018615151515815260200185810385528e818151815260200191508051906020019080838360005b83811015620003f5578181015183820152602001620003db565b50505050905090810190601f168015620004235780820380516001836020036101000a031916815260200191505b5085810384528d5181528d516020918201918f019080838360005b83811015620004585781810151838201526020016200043e565b50505050905090810190601f168015620004865780820380516001836020036101000a031916815260200191505b5085810383528c5181528c516020918201918e019080838360005b83811015620004bb578181015183820152602001620004a1565b50505050905090810190601f168015620004e95780820380516001836020036101000a031916815260200191505b5085810382528b5181528b516020918201918d019080838360005b838110156200051e57818101518382015260200162000504565b50505050905090810190601f1680156200054c5780820380516001836020036101000a031916815260200191505b509e50505050505050505050505050505060405180910390f35b6003545b90565b6002546001600160a01b03163314620005ba576040805162461bcd60e51b815260206004820152600a6024820152694f776e6572206f6e6c7960b01b604482015290519081900360640190fd5b6000620005c8600062000d0c565b905060003090506000600260009054906101000a90046001600160a01b0316828c8a8a8888604051620005fb9062000d19565b80886001600160a01b03166001600160a01b03168152602001876001600160a01b03166001600160a01b031681526020018060200180602001868152602001858152602001848152602001838103835288818151815260200191508051906020019080838360005b838110156200067d57818101518382015260200162000663565b50505050905090810190601f168015620006ab5780820380516001836020036101000a031916815260200191505b50838103825287518152875160209182019189019080838360005b83811015620006e0578181015183820152602001620006c6565b50505050905090810190601f1680156200070e5780820380516001836020036101000a031916815260200191505b509950505050505050505050604051809103906000f08015801562000737573d6000803e3d6000fd5b50600084815260046020526040902080546001600160a01b0319166001600160a01b03831617905590506200076b62000d27565b604051806101400160405280836001600160a01b031681526020018d81526020018c81526020018b81526020018a81526020018981526020018881526020018781526020018681526020016001151581525090508642108015620007ce57508515155b620007d857600080fd5b6003805460018101825560009190915281517fc2575a0e9e593c00f959f8c92f12db2869c3395a3b0502d05e2516446f71f85b600a90920291820180546001600160a01b0319166001600160a01b03909216919091178155602080840151805185946200086c937fc2575a0e9e593c00f959f8c92f12db2869c3395a3b0502d05e2516446f71f85c90910192019062000d85565b50604082015180516200088a91600284019160209091019062000d85565b5060608201518051620008a891600384019160209091019062000d85565b5060808201518051620008c691600484019160209091019062000d85565b5060a0820151816005015560c0820151816006015560e0820151816007015561010082015181600801556101208201518160090160006101000a81548160ff0219169083151502179055505050837f9ce3d6db707bca4ba0eabed8fba1e2c013a1c0bc1132a764170a7854d198c73d8d6040518080602001828103825283818151815260200191508051906020019080838360005b83811015620009755781810151838201526020016200095b565b50505050905090810190601f168015620009a35780820380516001836020036101000a031916815260200191505b509250505060405180910390a2620009bc600062000d10565b505050505050505050505050565b6002546001600160a01b031681565b6002546001600160a01b0316331462000a26576040805162461bcd60e51b815260206004820152600a6024820152694f776e6572206f6e6c7960b01b604482015290519081900360640190fd5b600280546001600160a01b0319166001600160a01b0392909216919091179055565b6004602052600090815260409020546001600160a01b031681565b6003818154811062000a7157fe5b6000918252602091829020600a9091020180546001808301805460408051601f60026000199685161561010002969096019093169490940491820187900487028401870190528083526001600160a01b03909316955092939092919083018282801562000b225780601f1062000af65761010080835404028352916020019162000b22565b820191906000526020600020905b81548152906001019060200180831162000b0457829003601f168201915b50505060028085018054604080516020601f600019610100600187161502019094169590950492830185900485028101850190915281815295969594509092509083018282801562000bb85780601f1062000b8c5761010080835404028352916020019162000bb8565b820191906000526020600020905b81548152906001019060200180831162000b9a57829003601f168201915b5050505060038301805460408051602060026001851615610100026000190190941693909304601f810184900484028201840190925281815294959493509083018282801562000c4c5780601f1062000c205761010080835404028352916020019162000c4c565b820191906000526020600020905b81548152906001019060200180831162000c2e57829003601f168201915b5050505060048301805460408051602060026001851615610100026000190190941693909304601f810184900484028201840190925281815294959493509083018282801562000ce05780601f1062000cb45761010080835404028352916020019162000ce0565b820191906000526020600020905b81548152906001019060200180831162000cc257829003601f168201915b505050600584015460068501546007860154600887015460099097015495969295919450925060ff168a565b5490565b80546001019055565b6123d08062000e2883390190565b60405180610140016040528060006001600160a01b0316815260200160608152602001606081526020016060815260200160608152602001600081526020016000815260200160008152602001600081526020016000151581525090565b828054600181600116156101000203166002900490600052602060002090601f016020900481019282601f1062000dc857805160ff191683800117855562000df8565b8280016001018555821562000df8579182015b8281111562000df857825182559160200191906001019062000ddb565b5062000e0692915062000e0a565b5090565b6200056a91905b8082111562000e06576000815560010162000e1156fe6080604052600f805460ff191690553480156200001b57600080fd5b50604051620023d0380380620023d0833981810160405260e08110156200004157600080fd5b815160208301516040808501805191519395929483019291846401000000008211156200006d57600080fd5b9083019060208201858111156200008357600080fd5b82516401000000008111828201881017156200009e57600080fd5b82525081516020918201929091019080838360005b83811015620000cd578181015183820152602001620000b3565b50505050905090810190601f168015620000fb5780820380516001836020036101000a031916815260200191505b50604052602001805160405193929190846401000000008211156200011f57600080fd5b9083019060208201858111156200013557600080fd5b82516401000000008111828201881017156200015057600080fd5b82525081516020918201929091019080838360005b838110156200017f57818101518382015260200162000165565b50505050905090810190601f168015620001ad5780820380516001836020036101000a031916815260200191505b5060409081526020820151908201516060909201519093509091508484620001e56301ffc9a760e01b6001600160e01b03620002a816565b8151620001fa9060069060208501906200032d565b508051620002109060079060208401906200032d565b506200022c6380ac58cd60e01b6001600160e01b03620002a816565b62000247635b5e139f60e01b6001600160e01b03620002a816565b6200026263780e9d6360e01b6001600160e01b03620002a816565b5050600a80546001600160a01b039889166001600160a01b031991821617909155600b805497909816961695909517909555600c555050600d91909155600e55620003d2565b6001600160e01b0319808216141562000308576040805162461bcd60e51b815260206004820152601c60248201527f4552433136353a20696e76616c696420696e7465726661636520696400000000604482015290519081900360640190fd5b6001600160e01b0319166000908152602081905260409020805460ff19166001179055565b828054600181600116156101000203166002900490600052602060002090601f016020900481019282601f106200037057805160ff1916838001178555620003a0565b82800160010185558215620003a0579182015b82811115620003a057825182559160200191906001019062000383565b50620003ae929150620003b2565b5090565b620003cf91905b80821115620003ae5760008155600101620003b9565b90565b611fee80620003e26000396000f3fe6080604052600436106101665760003560e01c806350b44712116100d15780639716bff51161008a578063b88d4fde11610064578063b88d4fde14610552578063c45a015514610625578063c87b56dd1461063a578063e985e9c51461066457610166565b80639716bff5146104ed5780639b89470314610502578063a22cb4651461051757610166565b806350b44712146104005780636352211e146104515780636c0360eb1461047b57806370a08231146104905780638da5cb5b146104c357806395d89b41146104d857610166565b80631249c58b116101235780631249c58b146102fa57806318160ddd1461030257806323b872dd146103175780632f745c591461035a57806342842e0e146103935780634f6ccce7146103d657610166565b806301ffc9a71461016b57806302c7e7af146101b357806306fdde03146101c8578063081812fc14610252578063095ea7b3146102985780631209b1f6146102d3575b600080fd5b34801561017757600080fd5b5061019f6004803603602081101561018e57600080fd5b50356001600160e01b03191661069f565b604080519115158252519081900360200190f35b3480156101bf57600080fd5b5061019f6106c2565b3480156101d457600080fd5b506101dd6106cb565b6040805160208082528351818301528351919283929083019185019080838360005b838110156102175781810151838201526020016101ff565b50505050905090810190601f1680156102445780820380516001836020036101000a031916815260200191505b509250505060405180910390f35b34801561025e57600080fd5b5061027c6004803603602081101561027557600080fd5b5035610761565b604080516001600160a01b039092168252519081900360200190f35b3480156102a457600080fd5b506102d1600480360360408110156102bb57600080fd5b506001600160a01b0381351690602001356107c3565b005b3480156102df57600080fd5b506102e861089e565b60408051918252519081900360200190f35b6102d16108a4565b34801561030e57600080fd5b506102e8610ae6565b34801561032357600080fd5b506102d16004803603606081101561033a57600080fd5b506001600160a01b03813581169160208101359091169060400135610af7565b34801561036657600080fd5b506102e86004803603604081101561037d57600080fd5b506001600160a01b038135169060200135610b4e565b34801561039f57600080fd5b506102d1600480360360608110156103b657600080fd5b506001600160a01b03813581169160208101359091169060400135610b7f565b3480156103e257600080fd5b506102e8600480360360208110156103f957600080fd5b5035610b9a565b34801561040c57600080fd5b5061042a6004803603602081101561042357600080fd5b5035610bb6565b6040805193845260208401929092526001600160a01b031682820152519081900360600190f35b34801561045d57600080fd5b5061027c6004803603602081101561047457600080fd5b5035610bef565b34801561048757600080fd5b506101dd610c1d565b34801561049c57600080fd5b506102e8600480360360208110156104b357600080fd5b50356001600160a01b0316610c7e565b3480156104cf57600080fd5b5061027c610ce6565b3480156104e457600080fd5b506101dd610cf5565b3480156104f957600080fd5b506102e8610d56565b34801561050e57600080fd5b506102e8610d5c565b34801561052357600080fd5b506102d16004803603604081101561053a57600080fd5b506001600160a01b0381351690602001351515610d62565b34801561055e57600080fd5b506102d16004803603608081101561057557600080fd5b6001600160a01b038235811692602081013590911691604082013591908101906080810160608201356401000000008111156105b057600080fd5b8201836020820111156105c257600080fd5b803590602001918460018302840111640100000000831117156105e457600080fd5b91908080601f016020809104026020016040519081016040528093929190818152602001838380828437600092019190915250929550610e67945050505050565b34801561063157600080fd5b5061027c610ec5565b34801561064657600080fd5b506101dd6004803603602081101561065d57600080fd5b5035610ed4565b34801561067057600080fd5b5061019f6004803603604081101561068757600080fd5b506001600160a01b0381358116916020013516611157565b6001600160e01b0319811660009081526020819052604090205460ff165b919050565b600f5460ff1681565b60068054604080516020601f60026000196101006001881615020190951694909404938401819004810282018101909252828152606093909290918301828280156107575780601f1061072c57610100808354040283529160200191610757565b820191906000526020600020905b81548152906001019060200180831161073a57829003601f168201915b5050505050905090565b600061076c82611185565b6107a75760405162461bcd60e51b815260040180806020018281038252602c815260200180611ee3602c913960400191505060405180910390fd5b506000908152600460205260409020546001600160a01b031690565b60006107ce82610bef565b9050806001600160a01b0316836001600160a01b031614156108215760405162461bcd60e51b8152600401808060200182810382526021815260200180611f676021913960400191505060405180910390fd5b806001600160a01b0316610833611198565b6001600160a01b0316148061085457506108548161084f611198565b611157565b61088f5760405162461bcd60e51b8152600401808060200182810382526038815260200180611e366038913960400191505060405180910390fd5b610899838361119c565b505050565b600c5481565b600c5434146108e8576040805162461bcd60e51b815260206004820152600b60248201526a57726f6e672076616c756560a81b604482015290519081900360640190fd5b600f5460ff161561092f576040805162461bcd60e51b815260206004820152600c60248201526b151a58dad95d1cc81cdbdb1960a21b604482015290519081900360640190fd5b610939601061120a565b60006109456010611213565b600a546040519192506001600160a01b0316903480156108fc02916000818181858888f1935050505015801561097f573d6000803e3d6000fd5b5061098a3382611217565b610992611d67565b5060408051606081018252828152600e546020808301918252338385018181526011805460018101825560009190915285517f31ecc21a745e3968a04e9570e4425bc18fa8019c68028196b546d1669c200c6860039092029182015593517f31ecc21a745e3968a04e9570e4425bc18fa8019c68028196b546d1669c200c69850155517f31ecc21a745e3968a04e9570e4425bc18fa8019c68028196b546d1669c200c6a90930180546001600160a01b0319166001600160a01b039094169390931790925583519182529251919284927fec7839b014d79286d210bb70d0ec14b0fe8c6b581a086e21eb5aa1ea2ef528f09281900390910190a2600d54821415610ae257600f805460ff19166001179055600d5460408051428152602081019290925280517ff6acd85f0b35db26a981320acb3e23b6b638f9bbf413b4243677f421076e7d759281900390910190a15b5050565b6000610af26002611351565b905090565b610b08610b02611198565b8261135c565b610b435760405162461bcd60e51b8152600401808060200182810382526031815260200180611f886031913960400191505060405180910390fd5b610899838383611400565b6001600160a01b0382166000908152600160205260408120610b76908363ffffffff61155e16565b90505b92915050565b61089983838360405180602001604052806000815250610e67565b600080610bae60028463ffffffff61156a16565b509392505050565b60118181548110610bc357fe5b60009182526020909120600390910201805460018201546002909201549092506001600160a01b031683565b6000610b7982604051806060016040528060298152602001611e98602991396002919063ffffffff61158616565b60098054604080516020601f60026000196101006001881615020190951694909404938401819004810282018101909252828152606093909290918301828280156107575780601f1061072c57610100808354040283529160200191610757565b60006001600160a01b038216610cc55760405162461bcd60e51b815260040180806020018281038252602a815260200180611e6e602a913960400191505060405180910390fd5b6001600160a01b0382166000908152600160205260409020610b7990611351565b600a546001600160a01b031681565b60078054604080516020601f60026000196101006001881615020190951694909404938401819004810282018101909252828152606093909290918301828280156107575780601f1061072c57610100808354040283529160200191610757565b600e5481565b600d5481565b610d6a611198565b6001600160a01b0316826001600160a01b03161415610dd0576040805162461bcd60e51b815260206004820152601960248201527f4552433732313a20617070726f766520746f2063616c6c657200000000000000604482015290519081900360640190fd5b8060056000610ddd611198565b6001600160a01b03908116825260208083019390935260409182016000908120918716808252919093529120805460ff191692151592909217909155610e21611198565b60408051841515815290516001600160a01b0392909216917f17307eab39ab6107e8899845ad3d59bd9653f200f220920489ca2b5937696c319181900360200190a35050565b610e78610e72611198565b8361135c565b610eb35760405162461bcd60e51b8152600401808060200182810382526031815260200180611f886031913960400191505060405180910390fd5b610ebf8484848461159d565b50505050565b600b546001600160a01b031681565b6060610edf82611185565b610f1a5760405162461bcd60e51b815260040180806020018281038252602f815260200180611f38602f913960400191505060405180910390fd5b60008281526008602090815260409182902080548351601f6002600019610100600186161502019093169290920491820184900484028101840190945280845260609392830182828015610faf5780601f10610f8457610100808354040283529160200191610faf565b820191906000526020600020905b815481529060010190602001808311610f9257829003601f168201915b505050505090506060610fc0610c1d565b9050805160001415610fd4575090506106bd565b8151156110955780826040516020018083805190602001908083835b6020831061100f5780518252601f199092019160209182019101610ff0565b51815160209384036101000a600019018019909216911617905285519190930192850191508083835b602083106110575780518252601f199092019160209182019101611038565b6001836020036101000a03801982511681845116808217855250505050505090500192505050604051602081830303815290604052925050506106bd565b8061109f856115ef565b6040516020018083805190602001908083835b602083106110d15780518252601f1990920191602091820191016110b2565b51815160209384036101000a600019018019909216911617905285519190930192850191508083835b602083106111195780518252601f1990920191602091820191016110fa565b6001836020036101000a0380198251168184511680821785525050505050509050019250505060405160208183030381529060405292505050919050565b6001600160a01b03918216600090815260056020908152604080832093909416825291909152205460ff1690565b6000610b7960028363ffffffff6116b316565b3390565b600081815260046020526040902080546001600160a01b0319166001600160a01b03841690811790915581906111d182610bef565b6001600160a01b03167f8c5be1e5ebec7d5bd14f71427d1e84f3dd0314c0f7b2291e5b200ac8c7c3b92560405160405180910390a45050565b80546001019055565b5490565b6001600160a01b038216611272576040805162461bcd60e51b815260206004820181905260248201527f4552433732313a206d696e7420746f20746865207a65726f2061646472657373604482015290519081900360640190fd5b61127b81611185565b156112cd576040805162461bcd60e51b815260206004820152601c60248201527f4552433732313a20746f6b656e20616c7265616479206d696e74656400000000604482015290519081900360640190fd5b6112d960008383610899565b6001600160a01b0382166000908152600160205260409020611301908263ffffffff6116bf16565b506113146002828463ffffffff6116cb16565b5060405181906001600160a01b038416906000907fddf252ad1be2c89b69c2b068fc378daa952ba7f163c4a11628f55a4df523b3ef908290a45050565b6000610b7982611213565b600061136782611185565b6113a25760405162461bcd60e51b815260040180806020018281038252602c815260200180611e0a602c913960400191505060405180910390fd5b60006113ad83610bef565b9050806001600160a01b0316846001600160a01b031614806113e85750836001600160a01b03166113dd84610761565b6001600160a01b0316145b806113f857506113f88185611157565b949350505050565b826001600160a01b031661141382610bef565b6001600160a01b0316146114585760405162461bcd60e51b8152600401808060200182810382526029815260200180611f0f6029913960400191505060405180910390fd5b6001600160a01b03821661149d5760405162461bcd60e51b8152600401808060200182810382526024815260200180611de66024913960400191505060405180910390fd5b6114a8838383610899565b6114b360008261119c565b6001600160a01b03831660009081526001602052604090206114db908263ffffffff6116e116565b506001600160a01b0382166000908152600160205260409020611504908263ffffffff6116bf16565b506115176002828463ffffffff6116cb16565b5080826001600160a01b0316846001600160a01b03167fddf252ad1be2c89b69c2b068fc378daa952ba7f163c4a11628f55a4df523b3ef60405160405180910390a4505050565b6000610b7683836116ed565b60008080806115798686611751565b9097909650945050505050565b60006115938484846117cc565b90505b9392505050565b6115a8848484611400565b6115b484848484611896565b610ebf5760405162461bcd60e51b8152600401808060200182810382526032815260200180611db46032913960400191505060405180910390fd5b60608161161457506040805180820190915260018152600360fc1b60208201526106bd565b8160005b811561162c57600101600a82049150611618565b6060816040519080825280601f01601f191660200182016040528015611659576020820181803883390190505b50859350905060001982015b83156116aa57600a840660300160f81b8282806001900393508151811061168857fe5b60200101906001600160f81b031916908160001a905350600a84049350611665565b50949350505050565b6000610b768383611a16565b6000610b768383611a2e565b600061159384846001600160a01b038516611a78565b6000610b768383611b0f565b8154600090821061172f5760405162461bcd60e51b8152600401808060200182810382526022815260200180611d926022913960400191505060405180910390fd5b82600001828154811061173e57fe5b9060005260206000200154905092915050565b8154600090819083106117955760405162461bcd60e51b8152600401808060200182810382526022815260200180611ec16022913960400191505060405180910390fd5b60008460000184815481106117a657fe5b906000526020600020906002020190508060000154816001015492509250509250929050565b600082815260018401602052604081205482816118675760405162461bcd60e51b81526004018080602001828103825283818151815260200191508051906020019080838360005b8381101561182c578181015183820152602001611814565b50505050905090810190601f1680156118595780820380516001836020036101000a031916815260200191505b509250505060405180910390fd5b5084600001600182038154811061187a57fe5b9060005260206000209060020201600101549150509392505050565b60006118aa846001600160a01b0316611bd5565b6118b6575060016113f8565b60606119dc630a85bd0160e11b6118cb611198565b88878760405160240180856001600160a01b03166001600160a01b03168152602001846001600160a01b03166001600160a01b0316815260200183815260200180602001828103825283818151815260200191508051906020019080838360005b8381101561194457818101518382015260200161192c565b50505050905090810190601f1680156119715780820380516001836020036101000a031916815260200191505b5095505050505050604051602081830303815290604052906001600160e01b0319166020820180516001600160e01b038381831617835250505050604051806060016040528060328152602001611db4603291396001600160a01b038816919063ffffffff611bdb16565b905060008180602001905160208110156119f557600080fd5b50516001600160e01b031916630a85bd0160e11b1492505050949350505050565b60009081526001919091016020526040902054151590565b6000611a3a8383611a16565b611a7057508154600181810184556000848152602080822090930184905584548482528286019093526040902091909155610b79565b506000610b79565b600082815260018401602052604081205480611add575050604080518082018252838152602080820184815286546001818101895560008981528481209551600290930290950191825591519082015586548684528188019092529290912055611596565b82856000016001830381548110611af057fe5b9060005260206000209060020201600101819055506000915050611596565b60008181526001830160205260408120548015611bcb5783546000198083019190810190600090879083908110611b4257fe5b9060005260206000200154905080876000018481548110611b5f57fe5b600091825260208083209091019290925582815260018981019092526040902090840190558654879080611b8f57fe5b60019003818190600052602060002001600090559055866001016000878152602001908152602001600020600090556001945050505050610b79565b6000915050610b79565b3b151590565b6060611593848460008585611bef85611bd5565b611c40576040805162461bcd60e51b815260206004820152601d60248201527f416464726573733a2063616c6c20746f206e6f6e2d636f6e7472616374000000604482015290519081900360640190fd5b60006060866001600160a01b031685876040518082805190602001908083835b60208310611c7f5780518252601f199092019160209182019101611c60565b6001836020036101000a03801982511681845116808217855250505050505090500191505060006040518083038185875af1925050503d8060008114611ce1576040519150601f19603f3d011682016040523d82523d6000602084013e611ce6565b606091505b5091509150611cf6828286611d01565b979650505050505050565b60608315611d10575081611596565b825115611d205782518084602001fd5b60405162461bcd60e51b815260206004820181815284516024840152845185939192839260440191908501908083836000831561182c578181015183820152602001611814565b6040518060600160405280600081526020016000815260200160006001600160a01b03168152509056fe456e756d657261626c655365743a20696e646578206f7574206f6620626f756e64734552433732313a207472616e7366657220746f206e6f6e20455243373231526563656976657220696d706c656d656e7465724552433732313a207472616e7366657220746f20746865207a65726f20616464726573734552433732313a206f70657261746f7220717565727920666f72206e6f6e6578697374656e7420746f6b656e4552433732313a20617070726f76652063616c6c6572206973206e6f74206f776e6572206e6f7220617070726f76656420666f7220616c6c4552433732313a2062616c616e636520717565727920666f7220746865207a65726f20616464726573734552433732313a206f776e657220717565727920666f72206e6f6e6578697374656e7420746f6b656e456e756d657261626c654d61703a20696e646578206f7574206f6620626f756e64734552433732313a20617070726f76656420717565727920666f72206e6f6e6578697374656e7420746f6b656e4552433732313a207472616e73666572206f6620746f6b656e2074686174206973206e6f74206f776e4552433732314d657461646174613a2055524920717565727920666f72206e6f6e6578697374656e7420746f6b656e4552433732313a20617070726f76616c20746f2063757272656e74206f776e65724552433732313a207472616e736665722063616c6c6572206973206e6f74206f776e6572206e6f7220617070726f766564a26469706673582212208a67f038b1014e50f4cfa35be6fbf4be90f15d7636140ed1c092e000b765113b64736f6c63430006020033a2646970667358221220fe5f4176f2469599052dd67240f0a143671312a65bd9bcbab38b18b7a71f188964736f6c63430006020033",
  "source": "// SPDX-License-Identifier: MIT\npragma solidity >=0.6.2 <0.8.0;\n\n\nimport \"./Dependencies.sol\";\nimport \"./Ticket.sol\";\n\ncontract TicketFactory {\n    using Counters for Counters.Counter;\n\n    event EventCreated(uint indexed id, string eventName);\n\n    Counters.Counter private _eventsIds;\n    Counters.Counter private _contractsIds;\n\n    address payable public owner;\n\n    struct PublicEvent {\n        address eventAddress;\n        string eventName;\n        string eventDescription;\n        string eventPosterURI;\n        string ticketSymbol;\n        uint ticketPrice;\n        uint startAt;\n        uint eventDuration;\n        uint maxTickets;\n        bool isExists;\n    }\n\n    PublicEvent[] public eventsList;\n    mapping (uint => TicketOffice) public ticketOffices;\n    mapping (address => bool) members;\n\n    constructor() public {\n        owner = msg.sender;\n    }\n\n    modifier onlyOwner() {\n        require(msg.sender == owner, \"Owner only\");\n        _;\n    }\n\n    modifier eventExists(uint _eventID) {\n        require(eventsList[_eventID].isExists, \"Event not found\");\n        _;\n    }\n\n    function addEvent(\n        string memory _eventName,\n        string memory _eventDescription,\n        string memory _eventPosterURI,\n        string memory _ticketSymbol,\n        uint _ticketPrice,\n        uint _startAt,\n        uint _eventDuration,\n        uint _maxTickets\n    ) public onlyOwner {\n        uint eventID = _eventsIds.current();\n        address factory = address(this);\n        TicketOffice _ticketOffice = new TicketOffice(\n            owner, factory, _eventName, _ticketSymbol, _ticketPrice, _maxTickets, eventID\n        );\n        ticketOffices[eventID] = _ticketOffice;\n        PublicEvent memory newEvent = PublicEvent(\n            address(_ticketOffice),\n            _eventName,\n            _eventDescription,\n            _eventPosterURI,\n            _ticketSymbol,\n            _ticketPrice,\n            _startAt,\n            _eventDuration,\n            _maxTickets,\n            true\n        );\n        require (block.timestamp < _startAt && _eventDuration != 0);\n        eventsList.push(newEvent);\n        emit EventCreated(eventID, _eventName);\n        _eventsIds.increment();\n    }\n\n    function changeOwner(address payable _newOwner) public onlyOwner {\n        owner = _newOwner;\n    }\n\n    function countEvents() public view returns (uint) {\n        return eventsList.length;\n    }\n\n\n}\n\n\n\n",
  "sourcePath": "/home/cyby/Code/React_dapp_example/ethereum-tickets/contracts/TicketFactory.sol",
  "compiler": {
    "name": "solc",
    "version": "0.6.2+commit.bacdbe57.Emscripten.clang"
  },
  "schemaVersion": "3.3.4",
  "updatedAt": "2021-05-07T16:33:52.380Z",
  "devdoc": {
    "methods": {}
  },
  "userdoc": {
    "methods": {}
  }
}