{
  "contractName": "TicketFactory",
  "abi": [
    {
      "inputs": [],
      "stateMutability": "nonpayable",
      "type": "constructor"
    },
    {
      "anonymous": false,
      "inputs": [
        {
          "indexed": true,
          "internalType": "uint256",
          "name": "id",
          "type": "uint256"
        },
        {
          "indexed": false,
          "internalType": "string",
          "name": "eventName",
          "type": "string"
        }
      ],
      "name": "EventCreated",
      "type": "event"
    },
    {
      "inputs": [
        {
          "internalType": "uint256",
          "name": "",
          "type": "uint256"
        }
      ],
      "name": "eventsList",
      "outputs": [
        {
          "internalType": "address",
          "name": "eventAddress",
          "type": "address"
        },
        {
          "internalType": "string",
          "name": "eventName",
          "type": "string"
        },
        {
          "internalType": "string",
          "name": "eventDescription",
          "type": "string"
        },
        {
          "internalType": "string",
          "name": "eventPosterURI",
          "type": "string"
        },
        {
          "internalType": "string",
          "name": "ticketSymbol",
          "type": "string"
        },
        {
          "internalType": "uint256",
          "name": "ticketPrice",
          "type": "uint256"
        },
        {
          "internalType": "uint256",
          "name": "startAt",
          "type": "uint256"
        },
        {
          "internalType": "uint256",
          "name": "eventDuration",
          "type": "uint256"
        },
        {
          "internalType": "uint256",
          "name": "maxTickets",
          "type": "uint256"
        },
        {
          "internalType": "bool",
          "name": "isExists",
          "type": "bool"
        }
      ],
      "stateMutability": "view",
      "type": "function",
      "constant": true
    },
    {
      "inputs": [],
      "name": "owner",
      "outputs": [
        {
          "internalType": "address payable",
          "name": "",
          "type": "address"
        }
      ],
      "stateMutability": "view",
      "type": "function",
      "constant": true
    },
    {
      "inputs": [
        {
          "internalType": "uint256",
          "name": "",
          "type": "uint256"
        }
      ],
      "name": "ticketOffices",
      "outputs": [
        {
          "internalType": "contract TicketOffice",
          "name": "",
          "type": "address"
        }
      ],
      "stateMutability": "view",
      "type": "function",
      "constant": true
    },
    {
      "inputs": [
        {
          "internalType": "string",
          "name": "_eventName",
          "type": "string"
        },
        {
          "internalType": "string",
          "name": "_eventDescription",
          "type": "string"
        },
        {
          "internalType": "string",
          "name": "_eventPosterURI",
          "type": "string"
        },
        {
          "internalType": "string",
          "name": "_ticketSymbol",
          "type": "string"
        },
        {
          "internalType": "uint256",
          "name": "_ticketPrice",
          "type": "uint256"
        },
        {
          "internalType": "uint256",
          "name": "_startAt",
          "type": "uint256"
        },
        {
          "internalType": "uint256",
          "name": "_eventDuration",
          "type": "uint256"
        },
        {
          "internalType": "uint256",
          "name": "_maxTickets",
          "type": "uint256"
        }
      ],
      "name": "addEvent",
      "outputs": [],
      "stateMutability": "nonpayable",
      "type": "function"
    },
    {
      "inputs": [
        {
          "internalType": "address payable",
          "name": "_newOwner",
          "type": "address"
        }
      ],
      "name": "changeOwner",
      "outputs": [],
      "stateMutability": "nonpayable",
      "type": "function"
    },
    {
      "inputs": [],
      "name": "countEvents",
      "outputs": [
        {
          "internalType": "uint256",
          "name": "",
          "type": "uint256"
        }
      ],
      "stateMutability": "view",
      "type": "function",
      "constant": true
    }
  ],
  "bytecode": "0x608060405234801561001057600080fd5b50600280546001600160a01b03191633179055613384806100326000396000f3fe60806040523480156200001157600080fd5b50600436106200006a5760003560e01c80634837a7d8146200006f578063560081aa146200008b5780638da5cb5b14620002e1578063a6f9dae11462000307578063af0b66461462000330578063f087c8eb1462000350575b600080fd5b6200007962000566565b60408051918252519081900360200190f35b620002df6004803603610100811015620000a457600080fd5b810190602081018135600160201b811115620000bf57600080fd5b820183602082011115620000d257600080fd5b803590602001918460018302840111600160201b83111715620000f457600080fd5b91908080601f0160208091040260200160405190810160405280939291908181526020018383808284376000920191909152509295949360208101935035915050600160201b8111156200014757600080fd5b8201836020820111156200015a57600080fd5b803590602001918460018302840111600160201b831117156200017c57600080fd5b91908080601f0160208091040260200160405190810160405280939291908181526020018383808284376000920191909152509295949360208101935035915050600160201b811115620001cf57600080fd5b820183602082011115620001e257600080fd5b803590602001918460018302840111600160201b831117156200020457600080fd5b91908080601f0160208091040260200160405190810160405280939291908181526020018383808284376000920191909152509295949360208101935035915050600160201b8111156200025757600080fd5b8201836020820111156200026a57600080fd5b803590602001918460018302840111600160201b831117156200028c57600080fd5b91908080601f01602080910402602001604051908101604052809392919081815260200183838082843760009201919091525092955050823593505050602081013590604081013590606001356200056d565b005b620002eb620009b3565b604080516001600160a01b039092168252519081900360200190f35b620002df600480360360208110156200031f57600080fd5b50356001600160a01b0316620009c2565b620002eb600480360360208110156200034857600080fd5b503562000a3f565b62000370600480360360208110156200036857600080fd5b503562000a5a565b604051808b6001600160a01b03166001600160a01b03168152602001806020018060200180602001806020018a81526020018981526020018881526020018781526020018615151515815260200185810385528e818151815260200191508051906020019080838360005b83811015620003f5578181015183820152602001620003db565b50505050905090810190601f168015620004235780820380516001836020036101000a031916815260200191505b5085810384528d5181528d516020918201918f019080838360005b83811015620004585781810151838201526020016200043e565b50505050905090810190601f168015620004865780820380516001836020036101000a031916815260200191505b5085810383528c5181528c516020918201918e019080838360005b83811015620004bb578181015183820152602001620004a1565b50505050905090810190601f168015620004e95780820380516001836020036101000a031916815260200191505b5085810382528b5181528b516020918201918d019080838360005b838110156200051e57818101518382015260200162000504565b50505050905090810190601f1680156200054c5780820380516001836020036101000a031916815260200191505b509e50505050505050505050505050505060405180910390f35b6003545b90565b6002546001600160a01b03163314620005ba576040805162461bcd60e51b815260206004820152600a6024820152694f776e6572206f6e6c7960b01b604482015290519081900360640190fd5b6000620005c8600062000d03565b905060003090506000600260009054906101000a90046001600160a01b0316828c8a8a8888604051620005fb9062000d10565b80886001600160a01b03166001600160a01b03168152602001876001600160a01b03166001600160a01b031681526020018060200180602001868152602001858152602001848152602001838103835288818151815260200191508051906020019080838360005b838110156200067d57818101518382015260200162000663565b50505050905090810190601f168015620006ab5780820380516001836020036101000a031916815260200191505b50838103825287518152875160209182019189019080838360005b83811015620006e0578181015183820152602001620006c6565b50505050905090810190601f1680156200070e5780820380516001836020036101000a031916815260200191505b509950505050505050505050604051809103906000f08015801562000737573d6000803e3d6000fd5b50600084815260046020526040902080546001600160a01b0319166001600160a01b03831617905590506200076b62000d1e565b604051806101400160405280836001600160a01b031681526020018d81526020018c81526020018b81526020018a815260200189815260200188815260200187815260200186815260200160011515815250905086421015620008fc576003805460018101825560009190915281517fc2575a0e9e593c00f959f8c92f12db2869c3395a3b0502d05e2516446f71f85b600a90920291820180546001600160a01b0319166001600160a01b03909216919091178155602080840151805185946200085c937fc2575a0e9e593c00f959f8c92f12db2869c3395a3b0502d05e2516446f71f85c90910192019062000d7c565b50604082015180516200087a91600284019160209091019062000d7c565b50606082015180516200089891600384019160209091019062000d7c565b5060808201518051620008b691600484019160209091019062000d7c565b5060a0820151600582015560c0820151600682015560e082015160078201556101008201516008820155610120909101516009909101805460ff19169115159190911790555b837f9ce3d6db707bca4ba0eabed8fba1e2c013a1c0bc1132a764170a7854d198c73d8d6040518080602001828103825283818151815260200191508051906020019080838360005b838110156200095e57818101518382015260200162000944565b50505050905090810190601f1680156200098c5780820380516001836020036101000a031916815260200191505b509250505060405180910390a2620009a5600062000d07565b505050505050505050505050565b6002546001600160a01b031681565b6002546001600160a01b031633811462000a1c576040805162461bcd60e51b815260206004820152601660248201527529b2b73232b9103737ba1030baba3437b934bd32b21760511b604482015290519081900360640190fd5b50600280546001600160a01b0319166001600160a01b0392909216919091179055565b6004602052600090815260409020546001600160a01b031681565b6003818154811062000a6857fe5b6000918252602091829020600a9091020180546001808301805460408051601f60026000199685161561010002969096019093169490940491820187900487028401870190528083526001600160a01b03909316955092939092919083018282801562000b195780601f1062000aed5761010080835404028352916020019162000b19565b820191906000526020600020905b81548152906001019060200180831162000afb57829003601f168201915b50505060028085018054604080516020601f600019610100600187161502019094169590950492830185900485028101850190915281815295969594509092509083018282801562000baf5780601f1062000b835761010080835404028352916020019162000baf565b820191906000526020600020905b81548152906001019060200180831162000b9157829003601f168201915b5050505060038301805460408051602060026001851615610100026000190190941693909304601f810184900484028201840190925281815294959493509083018282801562000c435780601f1062000c175761010080835404028352916020019162000c43565b820191906000526020600020905b81548152906001019060200180831162000c2557829003601f168201915b5050505060048301805460408051602060026001851615610100026000190190941693909304601f810184900484028201840190925281815294959493509083018282801562000cd75780601f1062000cab5761010080835404028352916020019162000cd7565b820191906000526020600020905b81548152906001019060200180831162000cb957829003601f168201915b505050600584015460068501546007860154600887015460099097015495969295919450925060ff168a565b5490565b80546001019055565b6125308062000e1f83390190565b60405180610140016040528060006001600160a01b0316815260200160608152602001606081526020016060815260200160608152602001600081526020016000815260200160008152602001600081526020016000151581525090565b828054600181600116156101000203166002900490600052602060002090601f016020900481019282601f1062000dbf57805160ff191683800117855562000def565b8280016001018555821562000def579182015b8281111562000def57825182559160200191906001019062000dd2565b5062000dfd92915062000e01565b5090565b6200056a91905b8082111562000dfd576000815560010162000e0856fe6080604052600f805460ff191690553480156200001b57600080fd5b506040516200253038038062002530833981810160405260e08110156200004157600080fd5b815160208301516040808501805191519395929483019291846401000000008211156200006d57600080fd5b9083019060208201858111156200008357600080fd5b82516401000000008111828201881017156200009e57600080fd5b82525081516020918201929091019080838360005b83811015620000cd578181015183820152602001620000b3565b50505050905090810190601f168015620000fb5780820380516001836020036101000a031916815260200191505b50604052602001805160405193929190846401000000008211156200011f57600080fd5b9083019060208201858111156200013557600080fd5b82516401000000008111828201881017156200015057600080fd5b82525081516020918201929091019080838360005b838110156200017f57818101518382015260200162000165565b50505050905090810190601f168015620001ad5780820380516001836020036101000a031916815260200191505b5060409081526020820151908201516060909201519093509091508484620001e56301ffc9a760e01b6001600160e01b03620002a816565b8151620001fa9060069060208501906200032d565b508051620002109060079060208401906200032d565b506200022c6380ac58cd60e01b6001600160e01b03620002a816565b62000247635b5e139f60e01b6001600160e01b03620002a816565b6200026263780e9d6360e01b6001600160e01b03620002a816565b5050600a80546001600160a01b039889166001600160a01b031991821617909155600b805497909816961695909517909555600c555050600d91909155600e55620003d2565b6001600160e01b0319808216141562000308576040805162461bcd60e51b815260206004820152601c60248201527f4552433136353a20696e76616c696420696e7465726661636520696400000000604482015290519081900360640190fd5b6001600160e01b0319166000908152602081905260409020805460ff19166001179055565b828054600181600116156101000203166002900490600052602060002090601f016020900481019282601f106200037057805160ff1916838001178555620003a0565b82800160010185558215620003a0579182015b82811115620003a057825182559160200191906001019062000383565b50620003ae929150620003b2565b5090565b620003cf91905b80821115620003ae5760008155600101620003b9565b90565b61214e80620003e26000396000f3fe60806040526004361061019c5760003560e01c806350b44712116100ec5780639b8947031161008a578063b88d4fde11610064578063b88d4fde146105e5578063c45a0155146106b8578063c87b56dd146106cd578063e985e9c5146106f75761019c565b80639b89470314610562578063a22cb46514610577578063a6f9dae1146105b25761019c565b806370a08231116100c657806370a08231146104f05780638da5cb5b1461052357806395d89b41146105385780639716bff51461054d5761019c565b806350b44712146104605780636352211e146104b15780636c0360eb146104db5761019c565b80631249c58b1161015957806323b872dd1161013357806323b872dd146103775780632f745c59146103ba57806342842e0e146103f35780634f6ccce7146104365761019c565b80631249c58b14610330578063159816501461033857806318160ddd146103625761019c565b806301ffc9a7146101a157806302c7e7af146101e957806306fdde03146101fe578063081812fc14610288578063095ea7b3146102ce5780631209b1f614610309575b600080fd5b3480156101ad57600080fd5b506101d5600480360360208110156101c457600080fd5b50356001600160e01b031916610732565b604080519115158252519081900360200190f35b3480156101f557600080fd5b506101d5610755565b34801561020a57600080fd5b5061021361075e565b6040805160208082528351818301528351919283929083019185019080838360005b8381101561024d578181015183820152602001610235565b50505050905090810190601f16801561027a5780820380516001836020036101000a031916815260200191505b509250505060405180910390f35b34801561029457600080fd5b506102b2600480360360208110156102ab57600080fd5b50356107f4565b604080516001600160a01b039092168252519081900360200190f35b3480156102da57600080fd5b50610307600480360360408110156102f157600080fd5b506001600160a01b038135169060200135610856565b005b34801561031557600080fd5b5061031e610931565b60408051918252519081900360200190f35b610307610937565b34801561034457600080fd5b506103076004803603602081101561035b57600080fd5b5035610b79565b34801561036e57600080fd5b5061031e610bca565b34801561038357600080fd5b506103076004803603606081101561039a57600080fd5b506001600160a01b03813581169160208101359091169060400135610bdb565b3480156103c657600080fd5b5061031e600480360360408110156103dd57600080fd5b506001600160a01b038135169060200135610c32565b3480156103ff57600080fd5b506103076004803603606081101561041657600080fd5b506001600160a01b03813581169160208101359091169060400135610c63565b34801561044257600080fd5b5061031e6004803603602081101561045957600080fd5b5035610c7e565b34801561046c57600080fd5b5061048a6004803603602081101561048357600080fd5b5035610c9a565b6040805193845260208401929092526001600160a01b031682820152519081900360600190f35b3480156104bd57600080fd5b506102b2600480360360208110156104d457600080fd5b5035610cd3565b3480156104e757600080fd5b50610213610d01565b3480156104fc57600080fd5b5061031e6004803603602081101561051357600080fd5b50356001600160a01b0316610d62565b34801561052f57600080fd5b506102b2610dca565b34801561054457600080fd5b50610213610dd9565b34801561055957600080fd5b5061031e610e3a565b34801561056e57600080fd5b5061031e610e40565b34801561058357600080fd5b506103076004803603604081101561059a57600080fd5b506001600160a01b0381351690602001351515610e46565b3480156105be57600080fd5b50610307600480360360208110156105d557600080fd5b50356001600160a01b0316610f4b565b3480156105f157600080fd5b506103076004803603608081101561060857600080fd5b6001600160a01b0382358116926020810135909116916040820135919081019060808101606082013564010000000081111561064357600080fd5b82018360208201111561065557600080fd5b8035906020019184600183028401116401000000008311171561067757600080fd5b91908080601f016020809104026020016040519081016040528093929190818152602001838380828437600092019190915250929550610fc7945050505050565b3480156106c457600080fd5b506102b2611025565b3480156106d957600080fd5b50610213600480360360208110156106f057600080fd5b5035611034565b34801561070357600080fd5b506101d56004803603604081101561071a57600080fd5b506001600160a01b03813581169160200135166112b7565b6001600160e01b0319811660009081526020819052604090205460ff165b919050565b600f5460ff1681565b60068054604080516020601f60026000196101006001881615020190951694909404938401819004810282018101909252828152606093909290918301828280156107ea5780601f106107bf576101008083540402835291602001916107ea565b820191906000526020600020905b8154815290600101906020018083116107cd57829003601f168201915b5050505050905090565b60006107ff826112e5565b61083a5760405162461bcd60e51b815260040180806020018281038252602c815260200180612043602c913960400191505060405180910390fd5b506000908152600460205260409020546001600160a01b031690565b600061086182610cd3565b9050806001600160a01b0316836001600160a01b031614156108b45760405162461bcd60e51b81526004018080602001828103825260218152602001806120c76021913960400191505060405180910390fd5b806001600160a01b03166108c66112f8565b6001600160a01b031614806108e757506108e7816108e26112f8565b6112b7565b6109225760405162461bcd60e51b8152600401808060200182810382526038815260200180611f966038913960400191505060405180910390fd5b61092c83836112fc565b505050565b600c5481565b600c54341461097b576040805162461bcd60e51b815260206004820152600b60248201526a57726f6e672076616c756560a81b604482015290519081900360640190fd5b600f5460ff16156109c2576040805162461bcd60e51b815260206004820152600c60248201526b151a58dad95d1cc81cdbdb1960a21b604482015290519081900360640190fd5b6109cc601061136a565b60006109d86010611373565b600a546040519192506001600160a01b0316903480156108fc02916000818181858888f19350505050158015610a12573d6000803e3d6000fd5b50610a1d3382611377565b610a25611ec7565b5060408051606081018252828152600e546020808301918252338385018181526011805460018101825560009190915285517f31ecc21a745e3968a04e9570e4425bc18fa8019c68028196b546d1669c200c6860039092029182015593517f31ecc21a745e3968a04e9570e4425bc18fa8019c68028196b546d1669c200c69850155517f31ecc21a745e3968a04e9570e4425bc18fa8019c68028196b546d1669c200c6a90930180546001600160a01b0319166001600160a01b039094169390931790925583519182529251919284927fec7839b014d79286d210bb70d0ec14b0fe8c6b581a086e21eb5aa1ea2ef528f09281900390910190a2600d54821415610b7557600f805460ff19166001179055600d5460408051428152602081019290925280517ff6acd85f0b35db26a981320acb3e23b6b638f9bbf413b4243677f421076e7d759281900390910190a15b5050565b600a546001600160a01b03163314610bc5576040805162461bcd60e51b815260206004820152600a6024820152694f776e6572206f6e6c7960b01b604482015290519081900360640190fd5b600c55565b6000610bd660026114b1565b905090565b610bec610be66112f8565b826114bc565b610c275760405162461bcd60e51b81526004018080602001828103825260318152602001806120e86031913960400191505060405180910390fd5b61092c838383611560565b6001600160a01b0382166000908152600160205260408120610c5a908363ffffffff6116be16565b90505b92915050565b61092c83838360405180602001604052806000815250610fc7565b600080610c9260028463ffffffff6116ca16565b509392505050565b60118181548110610ca757fe5b60009182526020909120600390910201805460018201546002909201549092506001600160a01b031683565b6000610c5d82604051806060016040528060298152602001611ff8602991396002919063ffffffff6116e616565b60098054604080516020601f60026000196101006001881615020190951694909404938401819004810282018101909252828152606093909290918301828280156107ea5780601f106107bf576101008083540402835291602001916107ea565b60006001600160a01b038216610da95760405162461bcd60e51b815260040180806020018281038252602a815260200180611fce602a913960400191505060405180910390fd5b6001600160a01b0382166000908152600160205260409020610c5d906114b1565b600a546001600160a01b031681565b60078054604080516020601f60026000196101006001881615020190951694909404938401819004810282018101909252828152606093909290918301828280156107ea5780601f106107bf576101008083540402835291602001916107ea565b600e5481565b600d5481565b610e4e6112f8565b6001600160a01b0316826001600160a01b03161415610eb4576040805162461bcd60e51b815260206004820152601960248201527f4552433732313a20617070726f766520746f2063616c6c657200000000000000604482015290519081900360640190fd5b8060056000610ec16112f8565b6001600160a01b03908116825260208083019390935260409182016000908120918716808252919093529120805460ff191692151592909217909155610f056112f8565b60408051841515815290516001600160a01b0392909216917f17307eab39ab6107e8899845ad3d59bd9653f200f220920489ca2b5937696c319181900360200190a35050565b600a546001600160a01b0316338114610fa4576040805162461bcd60e51b815260206004820152601660248201527529b2b73232b9103737ba1030baba3437b934bd32b21760511b604482015290519081900360640190fd5b50600a80546001600160a01b0319166001600160a01b0392909216919091179055565b610fd8610fd26112f8565b836114bc565b6110135760405162461bcd60e51b81526004018080602001828103825260318152602001806120e86031913960400191505060405180910390fd5b61101f848484846116fd565b50505050565b600b546001600160a01b031681565b606061103f826112e5565b61107a5760405162461bcd60e51b815260040180806020018281038252602f815260200180612098602f913960400191505060405180910390fd5b60008281526008602090815260409182902080548351601f600260001961010060018616150201909316929092049182018490048402810184019094528084526060939283018282801561110f5780601f106110e45761010080835404028352916020019161110f565b820191906000526020600020905b8154815290600101906020018083116110f257829003601f168201915b505050505090506060611120610d01565b905080516000141561113457509050610750565b8151156111f55780826040516020018083805190602001908083835b6020831061116f5780518252601f199092019160209182019101611150565b51815160209384036101000a600019018019909216911617905285519190930192850191508083835b602083106111b75780518252601f199092019160209182019101611198565b6001836020036101000a0380198251168184511680821785525050505050509050019250505060405160208183030381529060405292505050610750565b806111ff8561174f565b6040516020018083805190602001908083835b602083106112315780518252601f199092019160209182019101611212565b51815160209384036101000a600019018019909216911617905285519190930192850191508083835b602083106112795780518252601f19909201916020918201910161125a565b6001836020036101000a0380198251168184511680821785525050505050509050019250505060405160208183030381529060405292505050919050565b6001600160a01b03918216600090815260056020908152604080832093909416825291909152205460ff1690565b6000610c5d60028363ffffffff61181316565b3390565b600081815260046020526040902080546001600160a01b0319166001600160a01b038416908117909155819061133182610cd3565b6001600160a01b03167f8c5be1e5ebec7d5bd14f71427d1e84f3dd0314c0f7b2291e5b200ac8c7c3b92560405160405180910390a45050565b80546001019055565b5490565b6001600160a01b0382166113d2576040805162461bcd60e51b815260206004820181905260248201527f4552433732313a206d696e7420746f20746865207a65726f2061646472657373604482015290519081900360640190fd5b6113db816112e5565b1561142d576040805162461bcd60e51b815260206004820152601c60248201527f4552433732313a20746f6b656e20616c7265616479206d696e74656400000000604482015290519081900360640190fd5b6114396000838361092c565b6001600160a01b0382166000908152600160205260409020611461908263ffffffff61181f16565b506114746002828463ffffffff61182b16565b5060405181906001600160a01b038416906000907fddf252ad1be2c89b69c2b068fc378daa952ba7f163c4a11628f55a4df523b3ef908290a45050565b6000610c5d82611373565b60006114c7826112e5565b6115025760405162461bcd60e51b815260040180806020018281038252602c815260200180611f6a602c913960400191505060405180910390fd5b600061150d83610cd3565b9050806001600160a01b0316846001600160a01b031614806115485750836001600160a01b031661153d846107f4565b6001600160a01b0316145b80611558575061155881856112b7565b949350505050565b826001600160a01b031661157382610cd3565b6001600160a01b0316146115b85760405162461bcd60e51b815260040180806020018281038252602981526020018061206f6029913960400191505060405180910390fd5b6001600160a01b0382166115fd5760405162461bcd60e51b8152600401808060200182810382526024815260200180611f466024913960400191505060405180910390fd5b61160883838361092c565b6116136000826112fc565b6001600160a01b038316600090815260016020526040902061163b908263ffffffff61184116565b506001600160a01b0382166000908152600160205260409020611664908263ffffffff61181f16565b506116776002828463ffffffff61182b16565b5080826001600160a01b0316846001600160a01b03167fddf252ad1be2c89b69c2b068fc378daa952ba7f163c4a11628f55a4df523b3ef60405160405180910390a4505050565b6000610c5a838361184d565b60008080806116d986866118b1565b9097909650945050505050565b60006116f384848461192c565b90505b9392505050565b611708848484611560565b611714848484846119f6565b61101f5760405162461bcd60e51b8152600401808060200182810382526032815260200180611f146032913960400191505060405180910390fd5b60608161177457506040805180820190915260018152600360fc1b6020820152610750565b8160005b811561178c57600101600a82049150611778565b6060816040519080825280601f01601f1916602001820160405280156117b9576020820181803883390190505b50859350905060001982015b831561180a57600a840660300160f81b828280600190039350815181106117e857fe5b60200101906001600160f81b031916908160001a905350600a840493506117c5565b50949350505050565b6000610c5a8383611b76565b6000610c5a8383611b8e565b60006116f384846001600160a01b038516611bd8565b6000610c5a8383611c6f565b8154600090821061188f5760405162461bcd60e51b8152600401808060200182810382526022815260200180611ef26022913960400191505060405180910390fd5b82600001828154811061189e57fe5b9060005260206000200154905092915050565b8154600090819083106118f55760405162461bcd60e51b81526004018080602001828103825260228152602001806120216022913960400191505060405180910390fd5b600084600001848154811061190657fe5b906000526020600020906002020190508060000154816001015492509250509250929050565b600082815260018401602052604081205482816119c75760405162461bcd60e51b81526004018080602001828103825283818151815260200191508051906020019080838360005b8381101561198c578181015183820152602001611974565b50505050905090810190601f1680156119b95780820380516001836020036101000a031916815260200191505b509250505060405180910390fd5b508460000160018203815481106119da57fe5b9060005260206000209060020201600101549150509392505050565b6000611a0a846001600160a01b0316611d35565b611a1657506001611558565b6060611b3c630a85bd0160e11b611a2b6112f8565b88878760405160240180856001600160a01b03166001600160a01b03168152602001846001600160a01b03166001600160a01b0316815260200183815260200180602001828103825283818151815260200191508051906020019080838360005b83811015611aa4578181015183820152602001611a8c565b50505050905090810190601f168015611ad15780820380516001836020036101000a031916815260200191505b5095505050505050604051602081830303815290604052906001600160e01b0319166020820180516001600160e01b038381831617835250505050604051806060016040528060328152602001611f14603291396001600160a01b038816919063ffffffff611d3b16565b90506000818060200190516020811015611b5557600080fd5b50516001600160e01b031916630a85bd0160e11b1492505050949350505050565b60009081526001919091016020526040902054151590565b6000611b9a8383611b76565b611bd057508154600181810184556000848152602080822090930184905584548482528286019093526040902091909155610c5d565b506000610c5d565b600082815260018401602052604081205480611c3d5750506040805180820182528381526020808201848152865460018181018955600089815284812095516002909302909501918255915190820155865486845281880190925292909120556116f6565b82856000016001830381548110611c5057fe5b90600052602060002090600202016001018190555060009150506116f6565b60008181526001830160205260408120548015611d2b5783546000198083019190810190600090879083908110611ca257fe5b9060005260206000200154905080876000018481548110611cbf57fe5b600091825260208083209091019290925582815260018981019092526040902090840190558654879080611cef57fe5b60019003818190600052602060002001600090559055866001016000878152602001908152602001600020600090556001945050505050610c5d565b6000915050610c5d565b3b151590565b60606116f3848460008585611d4f85611d35565b611da0576040805162461bcd60e51b815260206004820152601d60248201527f416464726573733a2063616c6c20746f206e6f6e2d636f6e7472616374000000604482015290519081900360640190fd5b60006060866001600160a01b031685876040518082805190602001908083835b60208310611ddf5780518252601f199092019160209182019101611dc0565b6001836020036101000a03801982511681845116808217855250505050505090500191505060006040518083038185875af1925050503d8060008114611e41576040519150601f19603f3d011682016040523d82523d6000602084013e611e46565b606091505b5091509150611e56828286611e61565b979650505050505050565b60608315611e705750816116f6565b825115611e805782518084602001fd5b60405162461bcd60e51b815260206004820181815284516024840152845185939192839260440191908501908083836000831561198c578181015183820152602001611974565b6040518060600160405280600081526020016000815260200160006001600160a01b03168152509056fe456e756d657261626c655365743a20696e646578206f7574206f6620626f756e64734552433732313a207472616e7366657220746f206e6f6e20455243373231526563656976657220696d706c656d656e7465724552433732313a207472616e7366657220746f20746865207a65726f20616464726573734552433732313a206f70657261746f7220717565727920666f72206e6f6e6578697374656e7420746f6b656e4552433732313a20617070726f76652063616c6c6572206973206e6f74206f776e6572206e6f7220617070726f76656420666f7220616c6c4552433732313a2062616c616e636520717565727920666f7220746865207a65726f20616464726573734552433732313a206f776e657220717565727920666f72206e6f6e6578697374656e7420746f6b656e456e756d657261626c654d61703a20696e646578206f7574206f6620626f756e64734552433732313a20617070726f76656420717565727920666f72206e6f6e6578697374656e7420746f6b656e4552433732313a207472616e73666572206f6620746f6b656e2074686174206973206e6f74206f776e4552433732314d657461646174613a2055524920717565727920666f72206e6f6e6578697374656e7420746f6b656e4552433732313a20617070726f76616c20746f2063757272656e74206f776e65724552433732313a207472616e736665722063616c6c6572206973206e6f74206f776e6572206e6f7220617070726f766564a2646970667358221220633f090d979ab37c8b5b2d2e92e05f131095e692aca8995bcb89840f1ec58ffb64736f6c63430006020033a2646970667358221220a6a93794dfd8cabb2f1f8377149e1bc9992f6016709c91cd29d0882d3918576064736f6c63430006020033",
  "source": "// SPDX-License-Identifier: MIT\npragma solidity >=0.6.2 <0.8.0;\n\n\nimport \"./Dependencies.sol\";\nimport \"./Ticket.sol\";\n\ncontract TicketFactory {\n    using Counters for Counters.Counter;\n\n    event EventCreated(uint indexed id, string eventName);\n\n    Counters.Counter private _eventsIds;\n    Counters.Counter private _contractsIds;\n\n    address payable public owner;\n\n    struct PublicEvent {\n        address eventAddress;\n        string eventName;\n        string eventDescription;\n        string eventPosterURI;\n        string ticketSymbol;\n        uint ticketPrice;\n        uint startAt;\n        uint eventDuration;\n        uint maxTickets;\n        bool isExists;\n    }\n\n    PublicEvent[] public eventsList;\n    mapping (uint => TicketOffice) public ticketOffices;\n    mapping (address => bool) members;\n\n    constructor() public {\n        owner = msg.sender;\n    }\n\n    modifier onlyOwner() {\n        require(msg.sender == owner, \"Owner only\");\n        _;\n    }\n\n    modifier eventExists(uint _eventID) {\n        require(eventsList[_eventID].isExists, \"Event not found\");\n        _;\n    }\n    \n    modifier onlyBy(address _account) {\n        require(\n            msg.sender == _account,\n            \"Sender not authorized.\"\n        );\n        // Do not forget the \"_;\"! It will\n        // be replaced by the actual function\n        // body when the modifier is used.\n        _;\n    }\n\n    function addEvent(\n        string memory _eventName,\n        string memory _eventDescription,\n        string memory _eventPosterURI,\n        string memory _ticketSymbol,\n        uint _ticketPrice,\n        uint _startAt,\n        uint _eventDuration,\n        uint _maxTickets\n    ) public onlyOwner {\n        uint eventID = _eventsIds.current();\n        address factory = address(this);\n        TicketOffice _ticketOffice = new TicketOffice(\n            owner, factory, _eventName, _ticketSymbol, _ticketPrice, _maxTickets, eventID\n        );\n        ticketOffices[eventID] = _ticketOffice;\n        PublicEvent memory newEvent = PublicEvent(\n            address(_ticketOffice),\n            _eventName,\n            _eventDescription,\n            _eventPosterURI,\n            _ticketSymbol,\n            _ticketPrice,\n            _startAt,\n            _eventDuration,\n            _maxTickets,\n            true\n        );\n        if (block.timestamp < _startAt) {\n            eventsList.push(newEvent);\n        }\n        emit EventCreated(eventID, _eventName);\n        _eventsIds.increment();\n    }\n\n    function changeOwner(address payable _newOwner) public onlyBy(owner) {\n        owner = _newOwner;\n    }\n\n    function countEvents() public view returns (uint) {\n        return eventsList.length;\n    }\n    \n    \n}\n\n\n\n",
  "sourcePath": "/home/cyby/Code/React_dapp_example/ethereum-tickets/contracts/TicketFactory.sol",
  "compiler": {
    "name": "solc",
    "version": "0.6.2+commit.bacdbe57.Emscripten.clang"
  },
  "schemaVersion": "3.3.4",
  "updatedAt": "2021-05-03T20:11:35.100Z",
  "networkType": "ethereum",
  "devdoc": {
    "methods": {}
  },
  "userdoc": {
    "methods": {}
  }
}