{
  "contractName": "TicketFactory",
  "abi": [
    {
      "inputs": [],
      "stateMutability": "nonpayable",
      "type": "constructor"
    },
    {
      "anonymous": false,
      "inputs": [
        {
          "indexed": true,
          "internalType": "uint256",
          "name": "id",
          "type": "uint256"
        },
        {
          "indexed": false,
          "internalType": "string",
          "name": "eventName",
          "type": "string"
        }
      ],
      "name": "EventCreated",
      "type": "event"
    },
    {
      "inputs": [
        {
          "internalType": "uint256",
          "name": "",
          "type": "uint256"
        }
      ],
      "name": "eventsList",
      "outputs": [
        {
          "internalType": "address",
          "name": "eventAddress",
          "type": "address"
        },
        {
          "internalType": "string",
          "name": "eventName",
          "type": "string"
        },
        {
          "internalType": "string",
          "name": "eventDescription",
          "type": "string"
        },
        {
          "internalType": "string",
          "name": "eventPosterURI",
          "type": "string"
        },
        {
          "internalType": "string",
          "name": "ticketSymbol",
          "type": "string"
        },
        {
          "internalType": "uint256",
          "name": "ticketPrice",
          "type": "uint256"
        },
        {
          "internalType": "uint256",
          "name": "startAt",
          "type": "uint256"
        },
        {
          "internalType": "uint256",
          "name": "eventDuration",
          "type": "uint256"
        },
        {
          "internalType": "uint256",
          "name": "maxTickets",
          "type": "uint256"
        },
        {
          "internalType": "bool",
          "name": "isExists",
          "type": "bool"
        }
      ],
      "stateMutability": "view",
      "type": "function"
    },
    {
      "inputs": [],
      "name": "owner",
      "outputs": [
        {
          "internalType": "address payable",
          "name": "",
          "type": "address"
        }
      ],
      "stateMutability": "view",
      "type": "function"
    },
    {
      "inputs": [
        {
          "internalType": "uint256",
          "name": "",
          "type": "uint256"
        }
      ],
      "name": "ticketOffices",
      "outputs": [
        {
          "internalType": "contract TicketOffice",
          "name": "",
          "type": "address"
        }
      ],
      "stateMutability": "view",
      "type": "function"
    },
    {
      "inputs": [
        {
          "internalType": "string",
          "name": "_eventName",
          "type": "string"
        },
        {
          "internalType": "string",
          "name": "_eventDescription",
          "type": "string"
        },
        {
          "internalType": "string",
          "name": "_eventPosterURI",
          "type": "string"
        },
        {
          "internalType": "string",
          "name": "_ticketSymbol",
          "type": "string"
        },
        {
          "internalType": "uint256",
          "name": "_ticketPrice",
          "type": "uint256"
        },
        {
          "internalType": "uint256",
          "name": "_startAt",
          "type": "uint256"
        },
        {
          "internalType": "uint256",
          "name": "_eventDuration",
          "type": "uint256"
        },
        {
          "internalType": "uint256",
          "name": "_maxTickets",
          "type": "uint256"
        }
      ],
      "name": "setEventData",
      "outputs": [],
      "stateMutability": "nonpayable",
      "type": "function"
    },
    {
      "inputs": [],
      "name": "countEvents",
      "outputs": [
        {
          "internalType": "uint256",
          "name": "",
          "type": "uint256"
        }
      ],
      "stateMutability": "view",
      "type": "function"
    }
  ],
  "bytecode": "0x608060405234801561001057600080fd5b50600280546001600160a01b03191633179055613200806100326000396000f3fe60806040523480156200001157600080fd5b50600436106200005e5760003560e01c80631d0e29d914620000635780634837a7d814620002b95780638da5cb5b14620002d5578063af0b664614620002fb578063f087c8eb146200031b575b600080fd5b620002b760048036036101008110156200007c57600080fd5b810190602081018135600160201b8111156200009757600080fd5b820183602082011115620000aa57600080fd5b803590602001918460018302840111600160201b83111715620000cc57600080fd5b91908080601f0160208091040260200160405190810160405280939291908181526020018383808284376000920191909152509295949360208101935035915050600160201b8111156200011f57600080fd5b8201836020820111156200013257600080fd5b803590602001918460018302840111600160201b831117156200015457600080fd5b91908080601f0160208091040260200160405190810160405280939291908181526020018383808284376000920191909152509295949360208101935035915050600160201b811115620001a757600080fd5b820183602082011115620001ba57600080fd5b803590602001918460018302840111600160201b83111715620001dc57600080fd5b91908080601f0160208091040260200160405190810160405280939291908181526020018383808284376000920191909152509295949360208101935035915050600160201b8111156200022f57600080fd5b8201836020820111156200024257600080fd5b803590602001918460018302840111600160201b831117156200026457600080fd5b91908080601f016020809104026020016040519081016040528093929190818152602001838380828437600092019190915250929550508235935050506020810135906040810135906060013562000531565b005b620002c36200096f565b60408051918252519081900360200190f35b620002df62000976565b604080516001600160a01b039092168252519081900360200190f35b620002df600480360360208110156200031357600080fd5b503562000985565b6200033b600480360360208110156200033357600080fd5b5035620009a0565b604051808b6001600160a01b03166001600160a01b03168152602001806020018060200180602001806020018a81526020018981526020018881526020018781526020018615151515815260200185810385528e818151815260200191508051906020019080838360005b83811015620003c0578181015183820152602001620003a6565b50505050905090810190601f168015620003ee5780820380516001836020036101000a031916815260200191505b5085810384528d5181528d516020918201918f019080838360005b838110156200042357818101518382015260200162000409565b50505050905090810190601f168015620004515780820380516001836020036101000a031916815260200191505b5085810383528c5181528c516020918201918e019080838360005b83811015620004865781810151838201526020016200046c565b50505050905090810190601f168015620004b45780820380516001836020036101000a031916815260200191505b5085810382528b5181528b516020918201918d019080838360005b83811015620004e9578181015183820152602001620004cf565b50505050905090810190601f168015620005175780820380516001836020036101000a031916815260200191505b509e50505050505050505050505050505060405180910390f35b6002546001600160a01b031633146200057e576040805162461bcd60e51b815260206004820152600a6024820152694f776e6572206f6e6c7960b01b604482015290519081900360640190fd5b60006200058c600062000c49565b905060003090506000600260009054906101000a90046001600160a01b0316828c8a8a8888604051620005bf9062000c56565b80886001600160a01b03166001600160a01b03168152602001876001600160a01b03166001600160a01b031681526020018060200180602001868152602001858152602001848152602001838103835288818151815260200191508051906020019080838360005b838110156200064157818101518382015260200162000627565b50505050905090810190601f1680156200066f5780820380516001836020036101000a031916815260200191505b50838103825287518152875160209182019189019080838360005b83811015620006a45781810151838201526020016200068a565b50505050905090810190601f168015620006d25780820380516001836020036101000a031916815260200191505b509950505050505050505050604051809103906000f080158015620006fb573d6000803e3d6000fd5b50600084815260046020526040902080546001600160a01b0319166001600160a01b03831617905590506200072f62000c64565b5060408051610140810182526001600160a01b03838116825260208083018f81529383018e9052606083018d9052608083018c905260a083018b905260c083018a905260e0830189905261010083018890526001610120840181905260038054918201815560005283517fc2575a0e9e593c00f959f8c92f12db2869c3395a3b0502d05e2516446f71f85b600a90920291820180546001600160a01b03191691909416178355935180519394859462000811937fc2575a0e9e593c00f959f8c92f12db2869c3395a3b0502d05e2516446f71f85c909201929091019062000cc2565b50604082015180516200082f91600284019160209091019062000cc2565b50606082015180516200084d91600384019160209091019062000cc2565b50608082015180516200086b91600484019160209091019062000cc2565b5060a0820151816005015560c0820151816006015560e0820151816007015561010082015181600801556101208201518160090160006101000a81548160ff0219169083151502179055505050837f9ce3d6db707bca4ba0eabed8fba1e2c013a1c0bc1132a764170a7854d198c73d8d6040518080602001828103825283818151815260200191508051906020019080838360005b838110156200091a57818101518382015260200162000900565b50505050905090810190601f168015620009485780820380516001836020036101000a031916815260200191505b509250505060405180910390a262000961600062000c4d565b505050505050505050505050565b6003545b90565b6002546001600160a01b031681565b6004602052600090815260409020546001600160a01b031681565b60038181548110620009ae57fe5b6000918252602091829020600a9091020180546001808301805460408051601f60026000199685161561010002969096019093169490940491820187900487028401870190528083526001600160a01b03909316955092939092919083018282801562000a5f5780601f1062000a335761010080835404028352916020019162000a5f565b820191906000526020600020905b81548152906001019060200180831162000a4157829003601f168201915b50505060028085018054604080516020601f600019610100600187161502019094169590950492830185900485028101850190915281815295969594509092509083018282801562000af55780601f1062000ac95761010080835404028352916020019162000af5565b820191906000526020600020905b81548152906001019060200180831162000ad757829003601f168201915b5050505060038301805460408051602060026001851615610100026000190190941693909304601f810184900484028201840190925281815294959493509083018282801562000b895780601f1062000b5d5761010080835404028352916020019162000b89565b820191906000526020600020905b81548152906001019060200180831162000b6b57829003601f168201915b5050505060048301805460408051602060026001851615610100026000190190941693909304601f810184900484028201840190925281815294959493509083018282801562000c1d5780601f1062000bf15761010080835404028352916020019162000c1d565b820191906000526020600020905b81548152906001019060200180831162000bff57829003601f168201915b505050600584015460068501546007860154600887015460099097015495969295919450925060ff168a565b5490565b80546001019055565b6124668062000d6583390190565b60405180610140016040528060006001600160a01b0316815260200160608152602001606081526020016060815260200160608152602001600081526020016000815260200160008152602001600081526020016000151581525090565b828054600181600116156101000203166002900490600052602060002090601f016020900481019282601f1062000d0557805160ff191683800117855562000d35565b8280016001018555821562000d35579182015b8281111562000d3557825182559160200191906001019062000d18565b5062000d4392915062000d47565b5090565b6200097391905b8082111562000d43576000815560010162000d4e56fe6080604052600f805460ff191690553480156200001b57600080fd5b506040516200246638038062002466833981810160405260e08110156200004157600080fd5b815160208301516040808501805191519395929483019291846401000000008211156200006d57600080fd5b9083019060208201858111156200008357600080fd5b82516401000000008111828201881017156200009e57600080fd5b82525081516020918201929091019080838360005b83811015620000cd578181015183820152602001620000b3565b50505050905090810190601f168015620000fb5780820380516001836020036101000a031916815260200191505b50604052602001805160405193929190846401000000008211156200011f57600080fd5b9083019060208201858111156200013557600080fd5b82516401000000008111828201881017156200015057600080fd5b82525081516020918201929091019080838360005b838110156200017f57818101518382015260200162000165565b50505050905090810190601f168015620001ad5780820380516001836020036101000a031916815260200191505b5060409081526020820151908201516060909201519093509091508484620001e56301ffc9a760e01b6001600160e01b03620002a816565b8151620001fa9060069060208501906200032d565b508051620002109060079060208401906200032d565b506200022c6380ac58cd60e01b6001600160e01b03620002a816565b62000247635b5e139f60e01b6001600160e01b03620002a816565b6200026263780e9d6360e01b6001600160e01b03620002a816565b5050600a80546001600160a01b039889166001600160a01b031991821617909155600b805497909816961695909517909555600c555050600d91909155600e55620003d2565b6001600160e01b0319808216141562000308576040805162461bcd60e51b815260206004820152601c60248201527f4552433136353a20696e76616c696420696e7465726661636520696400000000604482015290519081900360640190fd5b6001600160e01b0319166000908152602081905260409020805460ff19166001179055565b828054600181600116156101000203166002900490600052602060002090601f016020900481019282601f106200037057805160ff1916838001178555620003a0565b82800160010185558215620003a0579182015b82811115620003a057825182559160200191906001019062000383565b50620003ae929150620003b2565b5090565b620003cf91905b80821115620003ae5760008155600101620003b9565b90565b61208480620003e26000396000f3fe6080604052600436106101815760003560e01c806350b44712116100d15780639716bff51161008a578063b88d4fde11610064578063b88d4fde14610597578063c45a01551461066a578063c87b56dd1461067f578063e985e9c5146106a957610181565b80639716bff5146105325780639b89470314610547578063a22cb4651461055c57610181565b806350b44712146104455780636352211e146104965780636c0360eb146104c057806370a08231146104d55780638da5cb5b1461050857806395d89b411461051d57610181565b80631249c58b1161013e57806323b872dd1161011857806323b872dd1461035c5780632f745c591461039f57806342842e0e146103d85780634f6ccce71461041b57610181565b80631249c58b14610315578063159816501461031d57806318160ddd1461034757610181565b806301ffc9a71461018657806302c7e7af146101ce57806306fdde03146101e3578063081812fc1461026d578063095ea7b3146102b35780631209b1f6146102ee575b600080fd5b34801561019257600080fd5b506101ba600480360360208110156101a957600080fd5b50356001600160e01b0319166106e4565b604080519115158252519081900360200190f35b3480156101da57600080fd5b506101ba610707565b3480156101ef57600080fd5b506101f8610710565b6040805160208082528351818301528351919283929083019185019080838360005b8381101561023257818101518382015260200161021a565b50505050905090810190601f16801561025f5780820380516001836020036101000a031916815260200191505b509250505060405180910390f35b34801561027957600080fd5b506102976004803603602081101561029057600080fd5b50356107a6565b604080516001600160a01b039092168252519081900360200190f35b3480156102bf57600080fd5b506102ec600480360360408110156102d657600080fd5b506001600160a01b038135169060200135610808565b005b3480156102fa57600080fd5b506103036108e3565b60408051918252519081900360200190f35b6102ec6108e9565b34801561032957600080fd5b506102ec6004803603602081101561034057600080fd5b5035610b2b565b34801561035357600080fd5b50610303610b7c565b34801561036857600080fd5b506102ec6004803603606081101561037f57600080fd5b506001600160a01b03813581169160208101359091169060400135610b8d565b3480156103ab57600080fd5b50610303600480360360408110156103c257600080fd5b506001600160a01b038135169060200135610be4565b3480156103e457600080fd5b506102ec600480360360608110156103fb57600080fd5b506001600160a01b03813581169160208101359091169060400135610c15565b34801561042757600080fd5b506103036004803603602081101561043e57600080fd5b5035610c30565b34801561045157600080fd5b5061046f6004803603602081101561046857600080fd5b5035610c4c565b6040805193845260208401929092526001600160a01b031682820152519081900360600190f35b3480156104a257600080fd5b50610297600480360360208110156104b957600080fd5b5035610c85565b3480156104cc57600080fd5b506101f8610cb3565b3480156104e157600080fd5b50610303600480360360208110156104f857600080fd5b50356001600160a01b0316610d14565b34801561051457600080fd5b50610297610d7c565b34801561052957600080fd5b506101f8610d8b565b34801561053e57600080fd5b50610303610dec565b34801561055357600080fd5b50610303610df2565b34801561056857600080fd5b506102ec6004803603604081101561057f57600080fd5b506001600160a01b0381351690602001351515610df8565b3480156105a357600080fd5b506102ec600480360360808110156105ba57600080fd5b6001600160a01b038235811692602081013590911691604082013591908101906080810160608201356401000000008111156105f557600080fd5b82018360208201111561060757600080fd5b8035906020019184600183028401116401000000008311171561062957600080fd5b91908080601f016020809104026020016040519081016040528093929190818152602001838380828437600092019190915250929550610efd945050505050565b34801561067657600080fd5b50610297610f5b565b34801561068b57600080fd5b506101f8600480360360208110156106a257600080fd5b5035610f6a565b3480156106b557600080fd5b506101ba600480360360408110156106cc57600080fd5b506001600160a01b03813581169160200135166111ed565b6001600160e01b0319811660009081526020819052604090205460ff165b919050565b600f5460ff1681565b60068054604080516020601f600260001961010060018816150201909516949094049384018190048102820181019092528281526060939092909183018282801561079c5780601f106107715761010080835404028352916020019161079c565b820191906000526020600020905b81548152906001019060200180831161077f57829003601f168201915b5050505050905090565b60006107b18261121b565b6107ec5760405162461bcd60e51b815260040180806020018281038252602c815260200180611f79602c913960400191505060405180910390fd5b506000908152600460205260409020546001600160a01b031690565b600061081382610c85565b9050806001600160a01b0316836001600160a01b031614156108665760405162461bcd60e51b8152600401808060200182810382526021815260200180611ffd6021913960400191505060405180910390fd5b806001600160a01b031661087861122e565b6001600160a01b0316148061089957506108998161089461122e565b6111ed565b6108d45760405162461bcd60e51b8152600401808060200182810382526038815260200180611ecc6038913960400191505060405180910390fd5b6108de8383611232565b505050565b600c5481565b600c54341461092d576040805162461bcd60e51b815260206004820152600b60248201526a57726f6e672076616c756560a81b604482015290519081900360640190fd5b600f5460ff1615610974576040805162461bcd60e51b815260206004820152600c60248201526b151a58dad95d1cc81cdbdb1960a21b604482015290519081900360640190fd5b61097e60106112a0565b600061098a60106112a9565b600a546040519192506001600160a01b0316903480156108fc02916000818181858888f193505050501580156109c4573d6000803e3d6000fd5b506109cf33826112ad565b6109d7611dfd565b5060408051606081018252828152600e546020808301918252338385018181526011805460018101825560009190915285517f31ecc21a745e3968a04e9570e4425bc18fa8019c68028196b546d1669c200c6860039092029182015593517f31ecc21a745e3968a04e9570e4425bc18fa8019c68028196b546d1669c200c69850155517f31ecc21a745e3968a04e9570e4425bc18fa8019c68028196b546d1669c200c6a90930180546001600160a01b0319166001600160a01b039094169390931790925583519182529251919284927fec7839b014d79286d210bb70d0ec14b0fe8c6b581a086e21eb5aa1ea2ef528f09281900390910190a2600d54821415610b2757600f805460ff19166001179055600d5460408051428152602081019290925280517ff6acd85f0b35db26a981320acb3e23b6b638f9bbf413b4243677f421076e7d759281900390910190a15b5050565b600a546001600160a01b03163314610b77576040805162461bcd60e51b815260206004820152600a6024820152694f776e6572206f6e6c7960b01b604482015290519081900360640190fd5b600c55565b6000610b8860026113e7565b905090565b610b9e610b9861122e565b826113f2565b610bd95760405162461bcd60e51b815260040180806020018281038252603181526020018061201e6031913960400191505060405180910390fd5b6108de838383611496565b6001600160a01b0382166000908152600160205260408120610c0c908363ffffffff6115f416565b90505b92915050565b6108de83838360405180602001604052806000815250610efd565b600080610c4460028463ffffffff61160016565b509392505050565b60118181548110610c5957fe5b60009182526020909120600390910201805460018201546002909201549092506001600160a01b031683565b6000610c0f82604051806060016040528060298152602001611f2e602991396002919063ffffffff61161c16565b60098054604080516020601f600260001961010060018816150201909516949094049384018190048102820181019092528281526060939092909183018282801561079c5780601f106107715761010080835404028352916020019161079c565b60006001600160a01b038216610d5b5760405162461bcd60e51b815260040180806020018281038252602a815260200180611f04602a913960400191505060405180910390fd5b6001600160a01b0382166000908152600160205260409020610c0f906113e7565b600a546001600160a01b031681565b60078054604080516020601f600260001961010060018816150201909516949094049384018190048102820181019092528281526060939092909183018282801561079c5780601f106107715761010080835404028352916020019161079c565b600e5481565b600d5481565b610e0061122e565b6001600160a01b0316826001600160a01b03161415610e66576040805162461bcd60e51b815260206004820152601960248201527f4552433732313a20617070726f766520746f2063616c6c657200000000000000604482015290519081900360640190fd5b8060056000610e7361122e565b6001600160a01b03908116825260208083019390935260409182016000908120918716808252919093529120805460ff191692151592909217909155610eb761122e565b60408051841515815290516001600160a01b0392909216917f17307eab39ab6107e8899845ad3d59bd9653f200f220920489ca2b5937696c319181900360200190a35050565b610f0e610f0861122e565b836113f2565b610f495760405162461bcd60e51b815260040180806020018281038252603181526020018061201e6031913960400191505060405180910390fd5b610f5584848484611633565b50505050565b600b546001600160a01b031681565b6060610f758261121b565b610fb05760405162461bcd60e51b815260040180806020018281038252602f815260200180611fce602f913960400191505060405180910390fd5b60008281526008602090815260409182902080548351601f60026000196101006001861615020190931692909204918201849004840281018401909452808452606093928301828280156110455780601f1061101a57610100808354040283529160200191611045565b820191906000526020600020905b81548152906001019060200180831161102857829003601f168201915b505050505090506060611056610cb3565b905080516000141561106a57509050610702565b81511561112b5780826040516020018083805190602001908083835b602083106110a55780518252601f199092019160209182019101611086565b51815160209384036101000a600019018019909216911617905285519190930192850191508083835b602083106110ed5780518252601f1990920191602091820191016110ce565b6001836020036101000a0380198251168184511680821785525050505050509050019250505060405160208183030381529060405292505050610702565b8061113585611685565b6040516020018083805190602001908083835b602083106111675780518252601f199092019160209182019101611148565b51815160209384036101000a600019018019909216911617905285519190930192850191508083835b602083106111af5780518252601f199092019160209182019101611190565b6001836020036101000a0380198251168184511680821785525050505050509050019250505060405160208183030381529060405292505050919050565b6001600160a01b03918216600090815260056020908152604080832093909416825291909152205460ff1690565b6000610c0f60028363ffffffff61174916565b3390565b600081815260046020526040902080546001600160a01b0319166001600160a01b038416908117909155819061126782610c85565b6001600160a01b03167f8c5be1e5ebec7d5bd14f71427d1e84f3dd0314c0f7b2291e5b200ac8c7c3b92560405160405180910390a45050565b80546001019055565b5490565b6001600160a01b038216611308576040805162461bcd60e51b815260206004820181905260248201527f4552433732313a206d696e7420746f20746865207a65726f2061646472657373604482015290519081900360640190fd5b6113118161121b565b15611363576040805162461bcd60e51b815260206004820152601c60248201527f4552433732313a20746f6b656e20616c7265616479206d696e74656400000000604482015290519081900360640190fd5b61136f600083836108de565b6001600160a01b0382166000908152600160205260409020611397908263ffffffff61175516565b506113aa6002828463ffffffff61176116565b5060405181906001600160a01b038416906000907fddf252ad1be2c89b69c2b068fc378daa952ba7f163c4a11628f55a4df523b3ef908290a45050565b6000610c0f826112a9565b60006113fd8261121b565b6114385760405162461bcd60e51b815260040180806020018281038252602c815260200180611ea0602c913960400191505060405180910390fd5b600061144383610c85565b9050806001600160a01b0316846001600160a01b0316148061147e5750836001600160a01b0316611473846107a6565b6001600160a01b0316145b8061148e575061148e81856111ed565b949350505050565b826001600160a01b03166114a982610c85565b6001600160a01b0316146114ee5760405162461bcd60e51b8152600401808060200182810382526029815260200180611fa56029913960400191505060405180910390fd5b6001600160a01b0382166115335760405162461bcd60e51b8152600401808060200182810382526024815260200180611e7c6024913960400191505060405180910390fd5b61153e8383836108de565b611549600082611232565b6001600160a01b0383166000908152600160205260409020611571908263ffffffff61177716565b506001600160a01b038216600090815260016020526040902061159a908263ffffffff61175516565b506115ad6002828463ffffffff61176116565b5080826001600160a01b0316846001600160a01b03167fddf252ad1be2c89b69c2b068fc378daa952ba7f163c4a11628f55a4df523b3ef60405160405180910390a4505050565b6000610c0c8383611783565b600080808061160f86866117e7565b9097909650945050505050565b6000611629848484611862565b90505b9392505050565b61163e848484611496565b61164a8484848461192c565b610f555760405162461bcd60e51b8152600401808060200182810382526032815260200180611e4a6032913960400191505060405180910390fd5b6060816116aa57506040805180820190915260018152600360fc1b6020820152610702565b8160005b81156116c257600101600a820491506116ae565b6060816040519080825280601f01601f1916602001820160405280156116ef576020820181803883390190505b50859350905060001982015b831561174057600a840660300160f81b8282806001900393508151811061171e57fe5b60200101906001600160f81b031916908160001a905350600a840493506116fb565b50949350505050565b6000610c0c8383611aac565b6000610c0c8383611ac4565b600061162984846001600160a01b038516611b0e565b6000610c0c8383611ba5565b815460009082106117c55760405162461bcd60e51b8152600401808060200182810382526022815260200180611e286022913960400191505060405180910390fd5b8260000182815481106117d457fe5b9060005260206000200154905092915050565b81546000908190831061182b5760405162461bcd60e51b8152600401808060200182810382526022815260200180611f576022913960400191505060405180910390fd5b600084600001848154811061183c57fe5b906000526020600020906002020190508060000154816001015492509250509250929050565b600082815260018401602052604081205482816118fd5760405162461bcd60e51b81526004018080602001828103825283818151815260200191508051906020019080838360005b838110156118c25781810151838201526020016118aa565b50505050905090810190601f1680156118ef5780820380516001836020036101000a031916815260200191505b509250505060405180910390fd5b5084600001600182038154811061191057fe5b9060005260206000209060020201600101549150509392505050565b6000611940846001600160a01b0316611c6b565b61194c5750600161148e565b6060611a72630a85bd0160e11b61196161122e565b88878760405160240180856001600160a01b03166001600160a01b03168152602001846001600160a01b03166001600160a01b0316815260200183815260200180602001828103825283818151815260200191508051906020019080838360005b838110156119da5781810151838201526020016119c2565b50505050905090810190601f168015611a075780820380516001836020036101000a031916815260200191505b5095505050505050604051602081830303815290604052906001600160e01b0319166020820180516001600160e01b038381831617835250505050604051806060016040528060328152602001611e4a603291396001600160a01b038816919063ffffffff611c7116565b90506000818060200190516020811015611a8b57600080fd5b50516001600160e01b031916630a85bd0160e11b1492505050949350505050565b60009081526001919091016020526040902054151590565b6000611ad08383611aac565b611b0657508154600181810184556000848152602080822090930184905584548482528286019093526040902091909155610c0f565b506000610c0f565b600082815260018401602052604081205480611b7357505060408051808201825283815260208082018481528654600181810189556000898152848120955160029093029095019182559151908201558654868452818801909252929091205561162c565b82856000016001830381548110611b8657fe5b906000526020600020906002020160010181905550600091505061162c565b60008181526001830160205260408120548015611c615783546000198083019190810190600090879083908110611bd857fe5b9060005260206000200154905080876000018481548110611bf557fe5b600091825260208083209091019290925582815260018981019092526040902090840190558654879080611c2557fe5b60019003818190600052602060002001600090559055866001016000878152602001908152602001600020600090556001945050505050610c0f565b6000915050610c0f565b3b151590565b6060611629848460008585611c8585611c6b565b611cd6576040805162461bcd60e51b815260206004820152601d60248201527f416464726573733a2063616c6c20746f206e6f6e2d636f6e7472616374000000604482015290519081900360640190fd5b60006060866001600160a01b031685876040518082805190602001908083835b60208310611d155780518252601f199092019160209182019101611cf6565b6001836020036101000a03801982511681845116808217855250505050505090500191505060006040518083038185875af1925050503d8060008114611d77576040519150601f19603f3d011682016040523d82523d6000602084013e611d7c565b606091505b5091509150611d8c828286611d97565b979650505050505050565b60608315611da657508161162c565b825115611db65782518084602001fd5b60405162461bcd60e51b81526020600482018181528451602484015284518593919283926044019190850190808383600083156118c25781810151838201526020016118aa565b6040518060600160405280600081526020016000815260200160006001600160a01b03168152509056fe456e756d657261626c655365743a20696e646578206f7574206f6620626f756e64734552433732313a207472616e7366657220746f206e6f6e20455243373231526563656976657220696d706c656d656e7465724552433732313a207472616e7366657220746f20746865207a65726f20616464726573734552433732313a206f70657261746f7220717565727920666f72206e6f6e6578697374656e7420746f6b656e4552433732313a20617070726f76652063616c6c6572206973206e6f74206f776e6572206e6f7220617070726f76656420666f7220616c6c4552433732313a2062616c616e636520717565727920666f7220746865207a65726f20616464726573734552433732313a206f776e657220717565727920666f72206e6f6e6578697374656e7420746f6b656e456e756d657261626c654d61703a20696e646578206f7574206f6620626f756e64734552433732313a20617070726f76656420717565727920666f72206e6f6e6578697374656e7420746f6b656e4552433732313a207472616e73666572206f6620746f6b656e2074686174206973206e6f74206f776e4552433732314d657461646174613a2055524920717565727920666f72206e6f6e6578697374656e7420746f6b656e4552433732313a20617070726f76616c20746f2063757272656e74206f776e65724552433732313a207472616e736665722063616c6c6572206973206e6f74206f776e6572206e6f7220617070726f766564a26469706673582212206dfd921d79f4ca9173c79c9881f7490911e95b5f78eea6629da7a8e8320dd2ba64736f6c63430006020033a2646970667358221220c8ab0e014f61a2082b3884a548fb60f59f369fb0ac8b3a87ebc005dbbf181c2364736f6c63430006020033",
  "source": "// SPDX-License-Identifier: MIT\npragma solidity >=0.6.2 <0.7.0;\n\nimport \"./Dependencies.sol\";\nimport \"./Ticket.sol\";\n\ncontract TicketFactory {\n    using Counters for Counters.Counter;\n\n    event EventCreated(uint indexed id, string eventName);\n\n    Counters.Counter private _eventsIds;\n    Counters.Counter private _contractsIds;\n\n    address payable public owner;\n\n    struct PublicEvent {\n        address eventAddress;\n        string eventName;\n        string eventDescription;\n        string eventPosterURI;\n        string ticketSymbol;\n        uint ticketPrice;\n        uint startAt;\n        uint eventDuration;\n        uint maxTickets;\n        bool isExists;\n    }\n\n    PublicEvent[] public eventsList;\n    mapping (uint => TicketOffice) public ticketOffices;\n\n    constructor() public {\n        owner = msg.sender;\n    }\n\n    modifier onlyOwner() {\n        require(msg.sender == owner, \"Owner only\");\n        _;\n    }\n\n    modifier eventExists(uint _eventID) {\n        require(eventsList[_eventID].isExists, \"Event not found\");\n        _;\n    }\n\n    function setEventData(\n        string memory _eventName,\n        string memory _eventDescription,\n        string memory _eventPosterURI,\n        string memory _ticketSymbol,\n        uint _ticketPrice,\n        uint _startAt,\n        uint _eventDuration,\n        uint _maxTickets\n    ) public onlyOwner {\n        uint eventID = _eventsIds.current();\n        address factory = address(this);\n        TicketOffice _ticketOffice = new TicketOffice(\n            owner, factory, _eventName, _ticketSymbol, _ticketPrice, _maxTickets, eventID\n        );\n        ticketOffices[eventID] = _ticketOffice;\n        PublicEvent memory newEvent = PublicEvent(\n            address(_ticketOffice),\n            _eventName,\n            _eventDescription,\n            _eventPosterURI,\n            _ticketSymbol,\n            _ticketPrice,\n            _startAt,\n            _eventDuration,\n            _maxTickets,\n            true\n        );\n        eventsList.push(newEvent);\n        emit EventCreated(eventID, _eventName);\n        _eventsIds.increment();\n    }\n\n    function countEvents() public view returns (uint) {\n        return eventsList.length;\n    }\n}\n\n\n\n",
  "sourcePath": "/home/cyby/Code/React_dapp_example/ethereum-tickets/contracts/TicketFactory.sol",
  "compiler": {
    "name": "solc",
    "version": "0.6.2+commit.bacdbe57.Emscripten.clang"
  },
  "schemaVersion": "3.3.4",
  "updatedAt": "2021-04-06T18:10:37.922Z",
  "devdoc": {
    "methods": {}
  },
  "userdoc": {
    "methods": {}
  }
}